:020000040800F2
:1000000078180024E50300088124000889240008EA
:100010009124000899240008A12400080000000091
:10002000000000000000000000000000A9240008FB
:10003000B124000800000000B9240008C124000811
:10004000FF030008FF030008FF030008FF03000888
:10005000FF030008FF030008FF030008FF03000878
:10006000FF030008FF030008FF030008FF03000868
:10007000FF030008FF030008FF030008FF03000858
:10008000FF030008FF030008FF030008FF03000848
:10009000FF030008FF030008FF030008FF03000838
:1000A000FF030008FF030008FF030008FF03000828
:1000B000FF030008FF030008FF030008FF03000818
:1000C000FF030008FF030008FF030008FF03000808
:1000D000FF030008FF030008FF030008FF030008F8
:1000E000FF030008FF03000800000000FF030008F2
:1000F000FF030008FF030008FF030008FF030008D8
:10010000FF030008FF030008FF030008FF030008C7
:10011000FF030008FF030008FF030008FF030008B7
:10012000FF030008FF030008FF030008FF030008A7
:10013000FF030008FF030008FF030008FF03000897
:1001400000000000000000000000000000000000AF
:10015000FF030008FF030008FF030008FF03000877
:10016000FF030008FF030008FF030008FF03000867
:10017000FF030008FF030008FF030008FF03000857
:10018000FF030008FF030008FF030008FF03000847
:10019000FF030008FF030008FF030008FF03000837
:1001A000FF030008FF030008FF030008FF03000827
:1001B000FF030008FF030008FF030008FF03000817
:1001C000FF030008FF030008FF030008FF03000807
:1001D000FF030008FF030008FF030008FF030008F7
:1001E000FF030008FF030008FF030008FF030008E7
:1001F000FF030008FF030008FF030008FF030008D7
:10020000FF030008FF030008FF030008FF030008C6
:10021000FF030008FF030008FF030008FF030008B6
:10022000FF030008FF030008FF03000800000000B0
:10023000FF030008FF03000800000000FF030008A0
:10024000FF030008FF030008FF030008FF03000886
:10025000FF030008FF030008FF030008FF03000876
:10026000FF030008FF030008FF030008FF03000866
:10027000FF030008FF030008FF0300080000000060
:10028000FF030008FF030008FF0300080000000050
:1002900000000000FF03000800F002F800F092F8F0
:1002A0000AA090E8000C82448344AAF10107DA45D1
:1002B00001D100F087F8AFF2090EBAE80F0013F091
:1002C000010F18BFFB1A43F0010318479073010098
:1002D000B0730100103A24BF78C878C1FAD8520729
:1002E00024BF30C830C144BF04680C6070470000B0
:1002F0000023002400250026103A28BF78C1FBD82F
:10030000520728BF30C148BF0B6070476E2915F0F7
:100310003184702915F07585662917F040806529AC
:1003200017F03D80672917F03A80612917F039806E
:1003300003681B0A28BF41F08001692915F0DE839C
:10034000642915F0DB83752915F0D8836F2915F022
:100350000385782915F04185E92915F09D84E42964
:1003600015F09A84F52915F09784EF2915F000858A
:10037000F82915F040850368DB0928BF41F08001AA
:10038000632916F07382732916F07882E32916F038
:100390008382F32916F08882002070471FB516F07B
:1003A000F1FF16F0D7FA04000020002116F0D4FF68
:1003B000401C60600020002116F0B8FFE0601FBD07
:1003C00010B510BD16F098FA1146FFF7E7FF01F0DF
:1003D0007FFA16F075FB03B4FFF7F2FF03BC01F0E0
:1003E000CFFC00000948804709480047FEE7FEE7C8
:1003F000FEE7FEE7FEE7FEE7FEE7FEE7FEE7FEE7D5
:1004000004480549054A064B70470000194E01088B
:100410009902000878120024781800247814002427
:10042000781400240000000010B590B040F2702154
:100430000022C2F200418DF83F204FF4807209780B
:1004400000294FF080711CBF4FF440724FF0407193
:10045000032807920A9105D0022805D001284FF001
:10046000050002E0152000E0352001900024012065
:1004700001A9CDE90B0440F258106422C2F20040F9
:1004800008940494029409940394CDE90544CDE9B9
:100490000D440EF00DFF18B1204610B010BD00BF86
:1004A00040F258100DF13F01C2F2004064220FF0FB
:1004B000ABF99DF83F40204610B010BD00BF00BF13
:1004C00080B590B040F270228DF83F10C2F2004229
:1004D0004FF480711278002A4FF080721CBF4FF4E5
:1004E00040714FF04072032807910A9206D002280B
:1004F00006D001284FF0010003E000BF112000E00A
:100500003120019000200890012104906422029083
:1005100009900390CDE90500CDE90B10CDE90D0060
:1005200040F2581001A9C2F200400EF0C1FE08B11D
:1005300010B080BD40F258100DF13F01C2F20040F2
:100540004FF47A720FF0A0F810B080BD00BF00BF6A
:1005500010B590B040F270244FF48072C2F20044A3
:1005600000218DF83F10207800284FF0807018BFD0
:100570004FF4407218BF4FF04070079264220A9007
:100580001520CDE9010101200891CDE90B0140F2D0
:10059000581004910991C2F200400391CDE9051170
:1005A000CDE90D1101A90EF083FE60B940F258109B
:1005B0000DF13F01C2F2004064220FF025F99DF8D1
:1005C0003F00C0071FD120784FF4807164220028BB
:1005D0004FF0B70018BF4FF4407101900020CDE9F3
:1005E0000200CDE904000690CDE90800CDE90A003B
:1005F000CDE90C000E9040F258100791C2F2004075
:1006000001A90EF055FE10B010BD00BF00BF00BF25
:100610002DE9F0419EB040F258144FF44070C2F200
:1006200000441690FF20109010A964222046002557
:10063000CDE91155CDE913551595CDE91755CDE9FE
:100640001955CDE91B551D950EF032FE40F270286C
:100650006620C2F2004810A9CDE9100564222046A8
:1006600088F800504FF480771697CDE91255CDE900
:100670001455CDE91755CDE91955CDE91B551D95F3
:100680000EF016FE48B99920109040F2581010A9AB
:10069000C2F2004064220EF00BFE0120012409F09A
:1006A00087FB98F800008DF8045010A964220028F8
:1006B0004FF0807018BF4FF4407718BF4FF0407074
:1006C000169719903520CDE9100540F25810C2F266
:1006D0000040CDE91755CDE91255CDE91455CDE9C6
:1006E0001A45CDE91C550EF0E3FD18B100278DF831
:1006F0003F700BE040F2581001A9C2F200406422A2
:100700000FF082F89DF80470B80752D498F80000F2
:1007100040F25814C2F2004410A900284FF480702F
:1007200018BF4FF4407064220025169006201090E8
:100730002046CDE91155CDE9135515954FF4807636
:10074000CDE91755CDE91955CDE91B551D950EF08D
:10075000AFFD98F8000047F002018DF83F106422C9
:1007600000284FF080708DF8041010A918BF4FF4C6
:10077000407618BF4FF04070169619903120CDE9A1
:10078000100501201795CDE91A05204613951895F7
:100790001295CDE91455CDE91C550EF089FD40B9EF
:1007A00040F2581001A9C2F200404FF47A720EF0E4
:1007B0006BFF40F2581401ADC2F200444FF4807058
:1007C000079038200190642220462946002706978A
:1007D000CDE90277CDE90477CDE90877CDE90A774D
:1007E000CDE90C770E970EF063FD012088F800002C
:1007F0004FF440710791C02201924FF04072169160
:10080000CDE90A2030208DF83F00062010A9CDE95F
:10081000100764222046CDE91277CDE91477CDE99F
:100820001777CDE91977CDE91B771D970EF040FDBD
:100830006422204629460EF03BFD28B1FFF788FED2
:100840001EB0BDE8F08100BF40F258100DF13F012D
:10085000C2F200404FF47A720EF016FFFFF778FEF6
:100860001EB0BDE8F08100BF2DE9F0479EB040F218
:1008700070284FF48071C2F2004840F25814C2F25E
:1008800000440DF13C0998F800000027642200287C
:100890004FF0C70018BF4FF4407101900620079138
:1008A00015914946CDE90F0720460697CDE9027715
:1008B000CDE90477CDE90877CDE90A77CDE90C7762
:1008C0000E97CDE91177CDE91377CDE91677CDE90C
:1008D0001877CDE91A771C970EF0EAFC4FF0050A5D
:1008E00001250DF1770600BF98F800004FF08071E8
:1008F0008DF87770642200284FF4807018BF4FF491
:10090000407018BF4FF04071CDE91507CDE9177160
:1009100020464946CDE90FA7CDE91177CDE91377F8
:10092000CDE91957CDE91B770EF0C2FC40B964221E
:10093000204631460EF068FF9DF87700C007D3D1FE
:1009400040F2581001A9C2F200404FF47A720EF042
:10095000AFFCB8BB40F2581400274FF005094FF028
:10096000010AC2F200440FAD0DF1770698F80000BD
:100970004FF080718DF87770642200284FF48070FA
:1009800018BF4FF4407018BF4FF04071CDE9150704
:10099000CDE9177120462946CDE90F97CDE91177AA
:1009A000CDE91377CDE919A7CDE91B770EF080FCCF
:1009B00040B96422204631460EF026FF9DF87700AC
:1009C000C007D3D11EB0BDE8F08700BF00BF00BF95
:1009D0002DE9F0479EB040F270284FF48072C2F2C9
:1009E000004840F25814C2F20044002798F8001062
:1009F00000294FF4806118BF4FF4406108914FF017
:100A0000200101914FF4405104910FA918BF4FF4F8
:100A1000407202900620079215926422CDE90F07DA
:100A200020460397CDE90577CDE90977CDE90B7726
:100A3000CDE90D77CDE91177CDE91377CDE91677BB
:100A4000CDE91877CDE91A771C970EF031FC01A992
:100A50004FF47A7220460EF02BFCB8BB40F25814CB
:100A60004FF005094FF0010AC2F200440FAD0DF13D
:100A7000770600BF98F800004FF080718DF877700E
:100A8000642200284FF4807018BF4FF4407018BFE4
:100A90004FF04071CDE91507CDE917712046294681
:100AA000CDE90F97CDE91177CDE91377CDE919A7F6
:100AB000CDE91B770EF0FCFB40B96422204631469D
:100AC0000EF0A2FE9DF87700C007D3D11EB0BDE89E
:100AD000F08700BF00BF00BF2DE9F0479EB040F295
:100AE00070284FF48072C2F2004840F25814C2F2EB
:100AF0000044002798F8001000294FF4806118BFC7
:100B00004FF4406108914FF0D80101914FF44051EA
:100B100004910FA918BF4FF440720290062007926B
:100B200015926422CDE90F0720460397CDE905779A
:100B3000CDE90977CDE90B77CDE90D77CDE91177CF
:100B4000CDE91377CDE91677CDE91877CDE91A7796
:100B50001C970EF0ADFB01A94FF47A7220460EF0FF
:100B6000A7FBB8BB40F258144FF005094FF0010A3B
:100B7000C2F200440FAD0DF1770600BF98F80000F7
:100B80004FF080718DF87770642200284FF48070E8
:100B900018BF4FF4407018BF4FF04071CDE91507F2
:100BA000CDE9177120462946CDE90F97CDE9117798
:100BB000CDE91377CDE919A7CDE91B770EF078FBC6
:100BC00040B96422204631460EF01EFE9DF87700A3
:100BD000C007D3D11EB0BDE8F08700BF00BF00BF83
:100BE0002DE9F0479EB0B2F5807F00F2878040F299
:100BF00070280C46C2F200484FF480734FF08077A3
:100C000040F2581598F80010C2F2004500294FF440
:100C100080611CBF4FF440734FF44061079318BFCD
:100C20004FF04077089102210A97002701914FF475
:100C3000405104910FA9029006200B926422CDE945
:100C40000F07284609970397CDE90577CDE90C777B
:100C50000E971593CDE91177CDE91377CDE9167786
:100C6000CDE91877CDE91A771C970EF021FB01A981
:100C7000642228460EF01CFB40B940F258104FF495
:100C80007A72C2F2004021460EF0FEFC40F2581487
:100C90004FF005094FF0010AC2F200440FAD0DF10B
:100CA000770600BF98F800004FF080718DF87770DC
:100CB000642200284FF4807018BF4FF4407018BFB2
:100CC0004FF04071CDE91507CDE91771204629464F
:100CD000CDE90F97CDE91177CDE91377CDE919A7C4
:100CE000CDE91B770EF0E4FA40B964222046314684
:100CF0000EF08AFD9DF87700C007D3D11EB0BDE885
:100D0000F08700BF00BF00BF10B58EB040F2702367
:100D10004FF48074C2F200431B78002B4FF48063C1
:100D20001CBF4FF440744FF4406306944FF080743E
:100D300007934FF00B0318BF4FF040740190002051
:100D4000089004900290CDE90B000D9040F25810ED
:100D500009940C460A9208220592C2F200406946A4
:100D60004FF47A7200934FF4405303930EF0A0FABD
:100D700010B10EB010BD00BF40F258104FF47A729F
:100D8000C2F2004021460EF03FFD0EB010BD00BF84
:100D90002DE9F04FA7B0034604916FF31F33099379
:100DA000C3F5805105909142029228BF114640F24E
:100DB000702840F25816030B0DF16009C2F200488A
:100DC0004FF480570024C2F200464FF0010B069109
:100DD00009F11C00089009F10400079098F8000040
:100DE0004FF480614FF0807200284FF480701CBF78
:100DF0004FF440704FF440611E904FF00B0018BF4D
:100E00004FF040721F91494621924FF47A72189028
:100E10004FF440501B9018030190CDE919040820AD
:100E20001D9030460393229720941C94CDE92344CF
:100E300025940EF03DFA18B1069F67B934E000BF63
:100E400040F271214FF47A723046C2F200410EF046
:100E5000DBFC069F47B340F271200999C2F20040C3
:100E6000C7F1000C00EB010A7D1E00211AF80100F9
:100E7000FF2840F0B3808D4216D00AEB0102537870
:100E8000FF2B40F0AB800CEB0103981C0CD090784A
:100E9000FF2840F0A380D81C06D0D078FF2840F06F
:100EA0009D8004318F42E1D105983D46C1B2C1F524
:100EB000807ABA4538BF554604992A46FFF790FE16
:100EC000BA4580F08381069FDDF814A0049809904C
:100ED00004E000BFB7F5807F40F278810998AA440A
:100EE0002844099098F800007F1B4FF48075B7F5EF
:100EF000807F38BF3D4600284FF480704FF48061FA
:100F00004FF080721CBF4FF440704FF4406110905E
:100F100018BF4FF040721E9006201890079811914C
:100F20000221C0E90044C0E9024404610898139218
:100F300064220A914FF44051CDE90D14C0E90044F8
:100F4000C0E90244C0E90444846130464946129431
:100F5000CDE90BA40F94CDE91454CDE916440EF05D
:100F6000A7F9642230460AA90EF0A2F930B94FF46D
:100F70007A72304609990EF087FB00BF98F800009E
:100F80004FF080718DF89B40642200284FF48070F0
:100F900018BF4FF4407018BF4FF040711E900520ED
:100FA00021914946CDE918043046CDE91F44CDE9E9
:100FB0001A44CDE91C44CDE922B4CDE924440EF015
:100FC00077F9002886D1642230460DF19B010EF09E
:100FD0001BFC9DF89B00C007D0D17BE70398FFF76F
:100FE000F7FC032D0CD240F2712500200699C2F2C5
:100FF0000045059A11F00301059238D150E000BF79
:1010000006980AF1010220F00300C0F1000E0498D6
:1010100000F1010C6FF003000CEB00031718DD78F2
:10102000FD70051D19790EEB0500397104305879F2
:1010300078710FD098790CEB0503B8715719D878EF
:101040000435F8700EEB050118793871081D5879D0
:101050007871EFD19879B871281D40F27125DDE9DA
:101060000521C2F2004511F00301059218D0099A3A
:10107000049B024401291B5CAB5411D0421C099B08
:10108000049F40F271251344C2F20045BA5C022964
:10109000EA5405D002300999049A0144105C68545E
:1010A000019F4FF48072384629464FF4807AFFF74B
:1010B00097FD4FF4805540F27120C2F20040099034
:1010C00004E000BFB5F5807F40F280800998574466
:1010D0005044099098F80000A5EB0A054FF4807A77
:1010E000B5F5807F38BFAA4600284FF480704FF4D2
:1010F00080614FF080721CBF4FF440704FF440612C
:10110000109018BF4FF040721E900620189007985C
:1011100011910221C0E90044C0E902440461089829
:10112000139264220A914FF44051CDE90D14C0E9A5
:101130000044C0E90244C0E90444846130464946A1
:101140001294CDE90B740F94CDE914A4CDE91644A3
:101150000EF0AEF8642230460AA90EF0A9F828B9BC
:101160004FF47A72304609990EF08EFA98F8000022
:101170004FF080718DF89B40642200284FF48070FE
:1011800018BF4FF4407018BF4FF040711E900520FB
:1011900021914946CDE918043046CDE91F44CDE9F7
:1011A0001A44CDE91C44CDE922B4CDE924440EF023
:1011B0007FF8002886D1642230460DF19B010EF0A5
:1011C00023FB9DF89B00C007D0D17BE70298069ACD
:1011D000904215D00499801A1144049105994FF456
:1011E0008057039B11440591B0F5805F029003F195
:1011F000010328BF3846069000200990EEE500BFA5
:1012000027B0BDE8F08F00BF2DE9F0410446174636
:10121000C0B21546C0F58078204690450E4638BFCE
:1012200047463A46FFF7DCFCA84528BFBDE8F081F9
:10123000ED1B3E443C442F46B5F5807F204628BF39
:101240004FF4807731463A46FFF7CAFCB5F5807F08
:10125000EED8BDE8F08100BF80B590B040F27020BC
:101260004FF48071C2F200406A46007800284FF0C7
:10127000EB0018BF4FF4407102904FF440600990AA
:101280004FF44050059000200A90CDE90D000F90DA
:10129000CDE9000040F2581008914FF040710B91D9
:1012A00008210791C2F2004002A90EF091FE10B091
:1012B00080BD00BF00BF00BF80B58EB040F270207F
:1012C0004FF48071C2F200404FF47A720078002827
:1012D0004FF00B0018BF4FF4407100900020CDE993
:1012E0000100CDE90300CDE90700CDE90900CDE912
:1012F0000B000D9040F25810069108210591C2F2A2
:10130000004069460DF0D4FF0EB080BD0000000023
:101310002DE9F04140F270050E46C2F200454FF64D
:10132000FF7201270446696029462F604FF00008CC
:10133000AF60C5F80C800DF073FD48BB012008F0CC
:1013400037FD02204FF6FF7285E8C101204629468D
:101350000DF066FDE0B903204FF6FF72C5E9000607
:101360000820A8600020E860204629460DF058FDBE
:1013700070B904204FF6FF72C5E900060120A8608D
:1013800040F22120E860204629460DF049FD18B1C1
:101390004FF0FF30BDE8F08140F2963120460DF06D
:1013A0005FFD002818BF4FF0FF30BDE8F08100BF9F
:1013B00080B540F270030122C2F20043C3E900216C
:1013C0009A600021D9604FF6FF7219460DF028FD92
:1013D000404280BD00BF00BF80B540F270030222D2
:1013E000C2F20043C3E90021012199600021D960C4
:1013F0004FF6FF7219460DF013FD404280BD00BF4D
:1014000080B540F27003C2F20043C3E90021082115
:1014100099600021D9604FF6FF7219460DF000FD6A
:10142000404280BD00BF00BF80B540F2700C042375
:10143000C2F2004CCCF800300123CCE90113CCF807
:101440000C204FF6FF7261460DF0EAFC404280BD71
:1014500080B540F270030622C2F20043C3E90021C6
:10146000012199600021D9604FF6FF7219460DF0F5
:10147000D7FC404280BD00BF80B540F2700301221E
:10148000C2F200439A600022C3E90021DA604FF6FD
:10149000FF7219460DF0C4FC404280BD00BF00BF82
:1014A00010B545F2AA504FF05041C5F2AA5000BF06
:1014B000086048608860C860086148618861C861E8
:1014C000086248628862C862086348638863C863C8
:1014D000086448648864C864086548658865C865A8
:1014E000086648668866C866086748678867C86788
:1014F0008031B1F1544FDBD100244FF0504100BF97
:101500000A68824218BF01344A6882428A6818BF5A
:101510000134824218BF0134CA6882420A6918BF86
:101520000134824218BF01344A6982428A6918BF75
:101530000134824218BF0134CA6982420A6A18BF64
:101540000134824218BF01344A6A82428A6A18BF53
:101550000134824218BF0134CA6A82420A6B18BF42
:101560000134824218BF01344A6B82428A6B18BF31
:101570000134824218BF0134CA6B4031824218BF25
:101580000134B1F1544FBBD124B1ADA014F0AEF988
:10159000204610BDB1A014F0A9F94FF0504045F21B
:1015A000AA5100BF20F8401BB0F1544F20F83E1C58
:1015B00020F83C1C20F83A1C20F8381C20F8361C77
:1015C00020F8341C20F8321C20F8301C20F82E1C87
:1015D00020F82C1C20F82A1C20F8281C20F8261C97
:1015E00020F8241C20F8221C20F8201C20F81E1CA7
:1015F00020F81C1C20F81A1C20F8181C20F8161CB7
:1016000020F8141C20F8121C20F8101C20F80E1CC6
:1016100020F80C1C20F80A1C20F8081C20F8061CD6
:1016200020F8041C20F8021CBCD100244FF05040CC
:1016300045F2AA5130F8202B8A4230F81E2C18BFF0
:1016400001348A4230F81C2C18BF01348A4230F829
:101650001A2C18BF01348A4230F8182C18BF0134F4
:101660008A4230F8162C18BF01348A4230F8142C04
:1016700018BF01348A4230F8122C18BF01348A4254
:1016800030F8102C18BF01348A4230F80E2C18BFE5
:1016900001348A4230F80C2C18BF01348A4230F8E9
:1016A0000A2C18BF01348A4230F8082C18BF0134C4
:1016B0008A4230F8062C18BF013430F8043C8A42C4
:1016C00030F8022C18BF01348B4218BF01348A4213
:1016D00018BF0134B0F1544FACD12CB166A014F056
:1016E00005F9204610BD00BF6AA014F0FFF84FF0C6
:1016F00050405A2100F8201BB0F1544F00F81F1C35
:1017000000F81E1C00F81D1C00F81C1C00F81B1C17
:1017100000F81A1C00F8191C00F8181C00F8171C17
:1017200000F8161C00F8151C00F8141C00F8131C17
:1017300000F8121C00F8111C00F8101C00F80F1C17
:1017400000F80E1C00F80D1C00F80C1C00F80B1C17
:1017500000F80A1C00F8091C00F8081C00F8071C17
:1017600000F8061C00F8051C00F8041C00F8031C17
:1017700000F8021C00F8011CBCD100244FF05040BE
:1017800010F8101B5A2910F80F1C18BF01345A29E1
:1017900010F80E1C18BF01345A2910F80D1C18BF80
:1017A00001345A2910F80C1C18BF01345A2910F8BA
:1017B0000B1C18BF01345A2910F80A1C18BF013439
:1017C0005A2910F8091C18BF01345A2910F8081CAE
:1017D00018BF01345A2910F8071C18BF01345A29C0
:1017E00010F8061C18BF01345A2910F8051C18BF40
:1017F00001345A2910F8041C18BF01345A2910F872
:10180000031C18BF013410F8022C5A2910F8011CCF
:1018100018BF01345A2A18BF01345A2918BF01349D
:10182000B0F1544FACD147F2E84121A0C0F601011C
:10183000002C08BF084614F059F8204610BD00BF20
:10184000736472616D2074657374203332626974DD
:10185000206661696C65642E0D000000736472611E
:101860006D207465737420333262697420737563FC
:10187000636573732E0D0000736472616D2074656F
:101880007374203136626974206661696C65642EF8
:101890000D000000736472616D20746573742031F3
:1018A0003662697420737563636573732E0D00006F
:1018B000736472616D20746573742038626974207A
:1018C0006661696C65642E0D000000000000000078
:1018D00086B04EF660704FF6B452CEF20000CFF6EE
:1018E000FF728158890312D4BFF34F8FBFF36F8FFC
:1018F000002140F8101CBFF34F8FBFF36F8F81584A
:1019000041F400318150BFF34F8FBFF36F8F815887
:10191000C90361D44FF624610022CFF6FF7101277D
:1019200043F6E07B42504FF62061CFF6FF71BFF3E4
:101930004F8F4158CB08C1F3C905C1F34E326E1E1B
:1019400007EBD101A5F1020A9F0701F003014FEA5D
:1019500086794FEA8A730193EB1E009304E000BF7F
:10196000002AA2F1010229D00BEA42142B4679B1D8
:10197000012947EA04030360334609D0022949EAF2
:1019800004030360534603D0019B23430360009B81
:10199000032DE5D344EA8374013304F1404C84F011
:1019A000004E04F1804800BF043B0460C0F800C052
:1019B000C0F800E0C0F80080F6D1D1E74FF6B4528D
:1019C000CFF6FF72BFF34F8F815841F480318150C1
:1019D000BFF34F8FBFF36F8F08F00EF9012502950B
:1019E00000F022FE1B2002ACC0F201300490002067
:1019F0004FF01046C0F2011005902046039600F00B
:101A000033FE4FF0105003901220ADF81000204626
:101A10008DF8095000278DF812708DF8177000F0BE
:101A200023FE02208DF809004FF040500390112052
:101A30008DF8100020468DF812508DF8175000F0E8
:101A400013FE03208DF809000020C3F20400039068
:101A50000E208DF81000204600F006FE04208DF8C0
:101A600009004FF0605003900F208DF810002046C1
:101A700000F0FAFD05208DF809004FF0C0400390FA
:101A800020468DF812708DF8167000F0EDFD0620DE
:101A90008DF809004FF04040039018208DF8100099
:101AA00020468DF812508DF8165000F0DDFD06200E
:101AB00000F0CAFD00F0BCF800F07AF900F070FB0D
:101AC00000F042FC00F0CCF9FEF7A2FDFFF7C4FBEA
:101AD0004FF48070002113F0BFFD40F2A4100821E4
:101AE000C2F20040FFF714FC47F2A35247F28F51B5
:101AF000C0F60102C0F60101002808BF11460846E1
:101B000013F0F4FE47F20250C0F6010013F0EEFEAF
:101B100047F25F50C0F6010013F0E8FE47F2315083
:101B2000C0F6010013F0E2FE20A013F0DFFE2BA0B0
:101B300013F0DCFE35A013F0D9FE04204EF21001A4
:101B4000C9F20000CEF200014FF0FF3200680F60D2
:101B50004F608F60C1F87021C1F87022C1F8742104
:101B6000C1F87422C1F87821C1F87822C1F87C212B
:101B7000C1F87C22C1F88021C1F88022C1F88421FB
:101B8000C1F88422C1F88821C1F88822C1F88C21CB
:101B9000C1F88C2287F31488EFF3108172B685F3B5
:101BA000108886F308888047FEE700BF207C207CF1
:101BB00020207C207C2F20205C7C20205F20207C2B
:101BC000207C207C5F29207C207C5F7C207C207C0A
:101BD0005F7C207C7C207C200D000000207C5F7CD2
:101BE00020207C5F2F5F2F5C5F5C5F7C207C5F7CB4
:101BF000207C5F5F5F5F2F205C5F5F5F2F205C5FFB
:101C00005F5F2F207C5F7C200D00000020426F6F03
:101C1000744C6F6164657220506F776572656420E3
:101C20006279204D58482E0D0000000000BF00BF13
:101C300070B59CB044F6180440F22C4509A84C211C
:101C4000C5F60204C5F6000513F0CAFE0220002600
:101C5000CDE90766CDE90566CDE90366CDE9016604
:101C600007F066FC0096286820F0010028602868CC
:101C700000F001000090206840F44040206020689F
:101C800000F44040009000982068800409D4206847
:101C900080045CBF20685FEA804002D42068800432
:101CA000F2D54FF6DC40CFF6FF70215841F002012B
:101CB0002150205800F00200009000980020009071
:101CC000206840F440402060206800F440400090CC
:101CD000286840F001002860286800F001000090AA
:101CE00000982068800409D4206880045CBF2068C4
:101CF0005FEA804002D420688004F2D50120099078
:101D00004FF480300A9002200521CDE91200149191
:101D1000C021CDE91510CDE9170009A808241994B0
:101D20000025CDE91A5501F0C7F828B1EFF310806E
:101D300072B600BFFEE700BF3F20019003204FF4C2
:101D40008061CDE9020540200494CDE90500CDE98C
:101D5000071001A8042101F05FFB28B1EFF3108008
:101D600072B600BFFEE700BF1CB070BD00BF00BF71
:101D7000EFF3108072B600BFFEE700BF00BF00BFE8
:101D8000704700BF00BF00BF704700BF00BF00BF6B
:101D900080B582B0019040F2D810C2F2004001A993
:101DA00001224FF47A730EF047FF019802B080BD14
:101DB00081B044F2E040C5F60200016841F4807150
:101DC0000160016801F4807100910099016841F09F
:101DD00010010160016801F0100100910099016893
:101DE00041F080010160016801F0800100910099DB
:101DF000016841F004010160016801F004010091F3
:101E00000099016841F002010160016801F00201DE
:101E100000910099016841F040010160016801F002
:101E2000400100910099016841F0080101600168DA
:101E300001F0080100910099016841F00101016081
:101E4000016801F0010100910099016841F0200151
:101E50000160006800F020000090009801B0704719
:101E600080B588B040F2A41044F24011C2F20040A4
:101E7000C5F2002120224FF4006301600121C0E976
:101E800001110821C1600261402242614FF4807259
:101E900082610022C26103624FF48053C0E90932BB
:101EA0000222092302930623CDE903310421019282
:101EB000CDE9051201A907920CF0DEFB08B1FFF78E
:101EC00057FF08B080BD00BF2DE9F047B6B040F223
:101ED0008400C2F20040017800297DD16C464FF0A9
:101EE000010880F8008004F10800B82113F078FDA3
:101EF0004FF08070009020464FF00009CDF804901C
:101F000001F00EFE08B1FFF733FF44F2D44040F673
:101F10000004C5F60200C5F6020431AD4FF0020A16
:101F20000168032741F4805101600068294600F4EC
:101F300080503190319840F2FF60319004F5C050EC
:101F4000CDE932A934970C26359603F07DFB4FF688
:101F500083702946CDE9310A04F500603596CDE954
:101F6000339703F071FB4FF6C0702946CDE9310A73
:101F700004F5A0503596CDE9339703F065FB48F2A0
:101F800037102946CDE9310A04F580503596CDE960
:101F9000339703F059FB4CF203702946CDE9310A1F
:101FA00004F580603596CDE9339703F04DFB4FF68D
:101FB0003F002946CDE9310A04F540603596CDE968
:101FC000339703F041FB20462946CDE9318ACDE91C
:101FD0003397359603F038FB36B0BDE8F08700BF85
:101FE00010B540F28000C2F200400178002918BF0D
:101FF00010BD0121017044F2D44040F60004C5F642
:102000000200C5F60204016821F48051016004F564
:10201000C05040F2FF6103F0EFFB04F500604FF6A3
:10202000837103F0E9FB04F5A0504FF6C07103F093
:10203000E3FB04F5805048F2371103F0DDFB04F5B3
:1020400080604CF2037103F0D7FB04F540604FF65B
:102050003F0103F0D1FB01212046BDE8104003F011
:10206000CBBB00000000000080B540F2041045F238
:102070000041C2F20040C4F20001012201600021CF
:10208000C0E90111C0E90321C0E90511C0E9071148
:1020900008F0E6F808B1FFF76BFE40F204100021EB
:1020A000C2F200400CF024FA08B1FFF761FE40F2E2
:1020B00004100021C2F200400CF042FA08B1FFF710
:1020C00057FE0120BDE880400CF0A6BA00BF00BF5B
:1020D000B0B5B8B002A9044601F10800B82113F068
:1020E0007FFC45F200412068C4F20001884201D023
:1020F00038B0B0BD0820029002A80024039401F07B
:102100000FFD08B1FFF734FE44F2E04533A9C5F6F0
:102110000205286840F002002860286800F00200EC
:10212000339033984FF4407033901220CDE934044B
:102130000420379040F200403694C5F6020003F0C8
:1021400083FAA86840F40010A860A86800F40010A2
:102150000190019838B0B0BD10B545F2004100685B
:10216000C4F20001884218BF10BD44F2E84040F2BA
:102170000044C5F60200C5F60204016821F400110E
:1021800001604FF40071204603F036FB4FF480717C
:102190002046BDE8104003F02FBB00000000000007
:1021A00080B540F2581045F20001C2F20040C5F27D
:1021B0000021016001214160202181601021C16066
:1021C000182101614FF4A06141610021C0E90611AD
:1021D00001620CF081FE002808BF80BDBDE8804090
:1021E000FFF7C6BD00BF00BF2DE9F047B6B0694696
:1021F000044601F10800B82113F0F2FB45F200019A
:102200002068C5F20021884202D036B0BDE8F087D0
:102210004FF00070009068464FF00008CDF8048041
:1022200001F07EFC08B1FFF7A3FD44F2E04041F26B
:102230000044C5F60200C5F6020431AD022750F88D
:102240000C1C032641F4804140F80C1C50F80C1C77
:102250004FF00A0901F4804131913199016841F050
:1022600040010160016801F040013191319901683C
:1022700041F020010160016801F0200131913199A4
:10228000016841F0020101600068294600F0020087
:10229000319031984020319004F58060CDE932785A
:1022A0003496CDF8D49003F0CFF931A9C0203496FC
:1022B0004FF0090A81E8810120462946CDF8D4A0D3
:1022C00003F0C2F931A94FF44070CDE9346981E8D7
:1022D00081012046294603F0B7F931A90420CDE950
:1022E000346A81E88101A4F58050294603F0ACF9F5
:1022F00036B0BDE8F08700BF10B545F200010068B8
:10230000C5F20021884218BF10BD44F2D44040F20B
:102310000044C5F60200C5F60204016821F48041BC
:10232000016004F5A050402103F066FA04F58050E6
:102330004FF4707103F060FA04212046BDE81040AC
:1023400003F05ABA0000000080B540F2D81041F204
:102350000001C2F20040C4F201010C2201604FF4FE
:10236000E13141600021C0E902110161C0E90521AC
:10237000C0E90711C0E909110DF0BAFF08B1FFF774
:10238000F7FC40F2D8100021C2F2004012F044FBEA
:1023900008B1FFF7EDFC40F2D8100021C2F2004076
:1023A00012F082FB08B1FFF7E3FC40F2D810C2F252
:1023B000004012F015FB002808BF80BDBDE880403A
:1023C000FFF7D6BC00BF00BF10B5B6B069460446E3
:1023D00001F10800B82113F003FB41F2000120686D
:1023E000C4F20101884201D036B010BD0120009036
:1023F00068460024019401F093FB08B1FFF7B8FC94
:1024000044F2E040C5F60200016941F010010161AB
:10241000016901F0100131913199016841F0010128
:102420000160006831A900F00100319031984FF44B
:10243000C06031900220CDE93204072035900020A1
:102440003494C5F6020003F0FFF836B010BD00BFAB
:1024500041F200010068C4F20101884218BF7047D0
:1024600044F2F0420020C5F60202C5F602004FF425
:10247000C061136823F01003136003F0BDB90000BE
:10248000FEE700BF00BF00BFFEE700BF00BF00BF08
:10249000FEE700BF00BF00BFFEE700BF00BF00BFF8
:1024A000FEE700BF00BF00BF704700BF00BF00BF16
:1024B000704700BF00BF00BF704700BF00BF00BF34
:1024C00007F03ABC0000000081B044F2F440C5F6C9
:1024D0000200016841F002010160006800F00200A2
:1024E0000090009801B070474EF60C514FF6FF0374
:1024F000CEF200010A681A4060F30A2242F08060BE
:1025000040F0FD700860704770B54EF60C5C4FF0FF
:10251000FF36CEF2000C00F1604505F56445DCF8AD
:102520000030C3F3022E8EF00703042B28BF0423D0
:10253000BEF1030406FA03F321EA030100F00F03DE
:1025400038BF0024043B0028634406FA04F048BF67
:1025500003F10C05A14022EA0000084300012870A5
:1025600070BD00BF00BF00BF002848BF704781B2E8
:1025700000F01F000122490902FA00F04EF2001299
:10258000CEF2000242F82100704700BF00BF00BF3A
:10259000002848BF704781B24EF280134909CEF23D
:1025A000000300F01F00012202FA00F043F82100AE
:1025B000BFF34F8FBFF36F8F704700BF00BF00BFE7
:1025C00000F002F800BF00BF4EF60C500422CEF21D
:1025D0000000C0F2FA52BFF34F8F016801F4E061CE
:1025E00011430160BFF34F8F00BF00BF00BF00BFAA
:1025F000FAE700BF00BF00BF411E0020B0EB116F23
:1026000002D00120704700BF4EF21002F023CEF23C
:10261000000251604EF62351CEF200010B700721EB
:1026200090601160704700BF4EF62450CEF200005B
:10263000BFF35F8F016821F48031016000210167E1
:10264000704700BF00BF00BF4EF6245140F00100AC
:10265000CEF200010867086840F480300860BFF3DC
:102660004F8FBFF36F8F7047B0B502784EF69C5C0A
:10267000CEF2000C43784CF8043CFAB14368CCF835
:102680000030037BC17A90F80AE0457B447A42EA45
:102690000372837B42EA0161C27B41EACE41007A48
:1026A00041EA854141EA434141EA024141EA0421CC
:1026B00041EA4000CCF80400B0BD00BF0020CCF8D7
:1026C0000000CCF80400B0BD4EF60C50CEF2000075
:1026D0000068C0F30220704710B500F1604C4EF660
:1026E00014540CF5644C00F00F0ECEF200040028D8
:1026F00048BF0EEB040C01F007004FF0FF3E80F0E6
:1027000007019CF800C0042928BF042103384FEAC0
:102710001C1438BF00200EFA01F1C4400EFA00F07C
:1027200024EA0101C043116000EA1C10186010BDCA
:10273000002848BF704781B24EF200234909CEF20B
:10274000000300F01F00012202FA00F043F821000C
:10275000704700BF00BF00BF00280FD481B24EF207
:1027600000224909CEF2000200F01F0052F82110A9
:1027700021FA00F000F00100704700BF0020704710
:10278000002848BF704781B24EF280234909CEF23B
:10279000000300F01F00012202FA00F043F82100BC
:1027A000704700BF00BF00BF00280FD481B24EF2B7
:1027B00000324909CEF2000200F01F0052F8211049
:1027C00021FA00F000F00100704700BF00207047C0
:1027D0004EF210010428CEF200010A6822F0040231
:1027E00008BF04320A60704700F002B800BF00BFA3
:1027F000704700BF00BF00BF03207047000000000B
:10280000B0B50A6850F8223023F0010340F82230B6
:10281000D1F808E0CB68D1E900C2BEF1080F08BFCB
:1028200042F04002D1E904451A438B692243CC6946
:102830002A430D6A1A434B6A22438C6A2A43CD6AA3
:102840001A430B6B22434C6B2A438D6B1A4350F88F
:102850002C30224340F28044CFF6C0742A432340F8
:102860001A4342EA0E0240F82C200A6BB2F5801F90
:1028700005D10A684AB1026842F4801202600A680F
:102880001AB1496B0268114301600020B0BD00BF5E
:1028900050F82230002A23F0010340F8223043F29E
:1028A000D20300EB820C08BF43F2DB0340F8223076
:1028B00000206FF07043CCF8043041F822307047AC
:1028C000F0B500EB820340F2000CCFF6F07C5A68C2
:1028D0008E6802F0404E0D69D1E9002742EA0E02EF
:1028E000CC6842EA07124F6942EA06228E690CEB75
:1028F0000555FE3742EA04422A43324342EA076260
:102900005A600268D20209D54268096943681A43CD
:102910000CEB015122F47002114341600020F0BD24
:10292000B0B5B3F5804F034618D1002053F822C04C
:10293000CCF6F0708D680CEA000C8C69D1E9000EC1
:1029400040EA0C00C96840EA0E1040EA0520204326
:1029500040EA0141002043F82210B0BD6FF0704101
:10296000002043F82210B0BD024650F8213000206C
:1029700043F4805342F82130704700BF00BF00BFCE
:10298000024650F82130002023F4805342F82130D1
:10299000704700BF00BF00BF10B540F2811301F1C6
:1029A000040E02460068CFF6F07300EA030C0869D3
:1029B0009EE8184043EA0C0323434C6943EA0E03A4
:1029C0008969184340EA442040EA4131002041F03F
:1029D0000801116010BD00BF02468068D1E900C344
:1029E000D1E902014CEA032343EA0043002043EA11
:1029F00001619160704700BF0246C068D1E900C321
:102A0000D1E902014CEA032343EA0043002043EAF0
:102A10000161D160704700BF0146006820F00400EA
:102A20004FF0FC3208601820086040204860002009
:102A30008A60CA60704700BF01460268002042F009
:102A400040020A60704700BF01460268002022F081
:102A500040020A60704700BFF0B581B01E460C46C8
:102A6000054607F079F96968490619D4F6B10746B1
:102A7000701C0DD16868400612D4686840065CBFBF
:102A800068685FEA40600BD468684006F2D507E0EA
:102A900007F062F9C01BB0420AD868684006F7D553
:102AA00068692060002001B0F0BD00BF07F054F954
:102AB000032001B0F0BD00BF80B50A68002A02689B
:102AC00022D022F4F84C4A6AD1E9073E43EA0C03CB
:102AD00043EA0E031A430260426847F6FF7322EA94
:102AE000030CCA68D1E9013E43EA0C03D1F810C0D7
:102AF00043EA0E031A434B6942EA0C0289691A43FE
:102B000011434160002080BD47F6FF7322EA030CA9
:102B1000CA68D1E9013E43EA0C03D1F810C043EA88
:102B20000E031A434B6942EA0C02D1F818C01A434B
:102B3000CB6942EA0C02D1F820C01A43496A42EA42
:102B40000C0211430160002080BD00BF00BF00BF28
:102B50002DE9F041002A826836D040F6FF734FF22B
:102B60000006CFF60F73CFF6FF761A40CB684F6999
:102B70006FF00F0406EB03330026CFF6F0761A430E
:102B800006EB07573A438260C2688E68D1E9003786
:102B900002F07042013B04EB07176FF0FF040D6970
:102BA00004EB062600241A43CFF6FF7489693A43E2
:102BB00004EB0545013932432A4342EA0161C16011
:102BC0000020BDE8F08100BF01F1080602F0704C62
:102BD000D1E900E278CE6FF00F074FF2000807EB63
:102BE00002126FF0FF0707EB0323AEF1010747EA7C
:102BF0000C07CFF6FF7840F2000E3A4308EB04349E
:102C0000CFF6FF7E00271A4389690EEB0545CFF604
:102C1000F077224307EB065301392A431A4342EA6D
:102C2000016181600020BDE8F08100BF00BF00BFEE
:102C3000024600EB81004FF4347342F821306FF00C
:102C400070418160002000211161516191617047E4
:102C5000024650F82130002043F4007342F821303E
:102C6000704700BF00BF00BF024650F8213000206F
:102C700023F4007342F82130704700BF00BF00BF4B
:102C800010B5024600696FF315006FF01F04D1E91B
:102C900000ECD1E9023140EA0E0004EB431340EAB4
:102CA0000C000343002043EA4121116110BD00BF25
:102CB0000246406943F6FE7320EA0303002043EA1C
:102CC00041015161704700BF0246006920F4F07372
:102CD0006FF01F0000EB4111002019431161704794
:102CE0008069002918BF800800F0060070470000C6
:102CF0002DE9F04142F20008C5F20028D8F80000A2
:102D000000F00F0006280CD8D8F80000072161F366
:102D10000300C8F80000D8F8000000F00F000728F2
:102D200032D144F20047C5F6020707F015F8044611
:102D3000386840F0010038603868400708D407F070
:102D40000BF8001B0228F7D90320BDE8F08100BF73
:102D5000786849F2000140F08040786000203861D6
:102D600040F20800C0F2D031C2F2004040F204024A
:102D7000C2F20042016040F20C00C2F20040016069
:102D8000106806F06DFF18B10120BDE8F08100BFAA
:102D900006F0E2FF044641F2883600BF3D6906F0C6
:102DA000DBFF15F0380F054606D0281BB042F5D9D9
:102DB0000320BDE8F08100BF4EF645513868CFF6DC
:102DC000F6710840386000BF3C6806F0C5FFA103FB
:102DD000044605D5601B6428F6D90320BDE8F081C0
:102DE000386820F0807038603D6806F0B5FFA901B2
:102DF000054605D5281B02284FF00300F4D957E0FB
:102E0000386820F0806038603C6806F0A5FF21013A
:102E1000044605D5601B02284FF00300F4D947E0B3
:102E2000386820F0805038603868800008D506F097
:102E300093FF001B02284FF00300F5D938E000BFD4
:102E400040F200210020B861C0F20221F86138622E
:102E5000B9620021C0F2FF11F96240F28021C0F294
:102E6000011139637863B963F86339647864396848
:102E700021F48021396038664FF0FF30B866D7F80A
:102E8000D00040F48030C7F8D000D8F80000000728
:102E90000DD5D8F80000072161F30300C8F8000041
:102EA000D8F8000000F00F0007287FF46DAF002075
:102EB000BDE8F08100BF00BFF0B581B0002800F090
:102EC00063810446007844F20046C007C5F6020656
:102ED00022D12078800740F1BC80306910F03801A1
:102EE000B06A3FD0182908BF5FEA80703AD0E06826
:102EF0003168002862D021F019010843306006F0E3
:102F00002BFF05463068400748D406F025FF401BDC
:102F10000228F7D977E100BF306900F03801B06AC4
:102F2000102905D018290BD100F00300022807D181
:102F300030688003CDD560680028CAD124E100BF85
:102F4000606800284CD0B0F5A02F61D0B0F5803F6C
:102F500062D0306820F480303060306820F4802007
:102F60005DE000BF30684007E06802D5002800F04F
:102F70000B81316821F019010843306006F0ECFE46
:102F8000054600BF3068400708D406F0E5FE401B48
:102F900002284FF00300F5D921E200BF06F03CFF04
:102FA00041F20301884249D820697168402821F420
:102FB0007C314BD141F400304AE000BF21F00100E8
:102FC000306006F0C9FE05463068400741D506F07E
:102FD000C3FE401B02284FF00300F5D9FFE100BFFC
:102FE000306820F480303060306820F48020306019
:102FF00006F0B2FE054600BF306880037FF569AF7A
:1030000006F0AAFE401B64284FF00300F4D9E6E165
:10301000306840F480203060306840F480303060A8
:1030200006F09AFE054600BF306880033FF551AFB9
:1030300006F092FE401B6428F6D9E4E0706821692E
:1030400020F0FE4040EA016002E000BF41EA0030AB
:1030500070602078C00654D5306900F03801B06A3D
:10306000082905D0182919D100F00300012815D12D
:103070003068C00503D5E069802840F0858006F0FF
:10308000CBFE41F2030188421ED8206A71682028D5
:1030900021F0F84132D141F0804031E0E069002870
:1030A000306819D040F08000306006F055FE0546CB
:1030B0003068C005E3D406F04FFE401B02284FF0F5
:1030C0000300F5D98BE100BFF068216A20F07C5045
:1030D00040EA0160F06014E020F08000306006F00B
:1030E0003BFE05463068C0050BD506F035FE401B9B
:1030F00002284FF00300F5D971E100BF41EA80607A
:1031000070602078000743D42078800654D420785B
:10311000400765D4656A9DB3306900F0380018280F
:1031200040F0A880012DB16A306B2DD001F0030270
:10313000A36A9A4228D1C1F30511E26A914223D1D0
:103140000146226B6FF35F21013A91421CD1C0F31B
:103150004622616B01398A4216D1C0F30642A16B47
:1031600001398A4210D1C0F30660E16B013988420F
:103170000AD1706BA16CC0F3CC00814240F0328167
:10318000002001B0F0BD00BF012001B0F0BD00BFC4
:1031900060690028706F39D040F00100706706F058
:1031A000DBFD0546706F8007AED406F0D5FD401BF1
:1031B0000228F7D927E000BFA0690028306847D06F
:1031C00040F48050306006F0C7FD0546306880044A
:1031D0009DD406F0C1FD401B0228F7D913E000BFC3
:1031E000D6F8000440F48070C6F8000406F0B4FD80
:1031F000054600BFD6F80004C00519D406F0ACFDA2
:10320000401B6428F6D9032001B0F0BD20F0010076
:10321000706706F0A1FD0546706F80077FF574AFFB
:1032200006F09AFD401B02284FF00300F4D9D6E0C7
:10323000A068002840D0052858D001285AD0306F07
:1032400020F001003067306F20F0040055E000BF2F
:1032500020F48050306006F07FFD05463068800421
:103260007FF555AF06F078FD401B02284FF00300B4
:10327000F4D9B4E0306820F08070306006F06CFD66
:10328000022D05460CD100BF3068800148D506F0FC
:1032900063FD401B02284FF00300F5D99FE000BFFB
:1032A000306880017FF56CAF06F056FD401B0228A8
:1032B0004FF00300F4D992E0306F20F00100306746
:1032C000306F20F00400306706F046FD054641F2FD
:1032D0008837306F80077FF51DAF06F03DFD401B3E
:1032E000B8424FF00300F4D979E000BF306F40F0EE
:1032F00004003067306F40F00100306706F02CFDAD
:10330000054641F2883700BF306F80073FF502AFB6
:1033100006F022FD401BB8424FF00300F4D95EE0F6
:1033200004F12807B06A40F2F33188438ECF084396
:10333000591E40EA02104FF47E426FF35F21B062E3
:1033400002EB47204FF4FE0280B2E36B0844A16B0E
:1033500002EB01414FF0FE4201F4FE0102EB036279
:10336000084402F0FE4108443063F06A4FF6F871F9
:1033700020F00100F062706BA26C884340EAC2004A
:103380007063F06A216C20F00C000843F062F06A70
:10339000616C20F002000843F062F06A40F4803073
:1033A000F062F06A40F40030F062F06A40F480208D
:1033B000F062F06A40F00100F062306840F0807026
:1033C000306006F0C9FC0446306880013FF5D8AE95
:1033D00006F0C2FC001B02284FF00300F4D901B034
:1033E000F0BD00BFF06A20F00100F06206F0B4FC0E
:1033F000054606F0B1FCA842FBD0706B4FF6F871A1
:10340000A26C884340EAC2007063F06A40F0010099
:10341000F062002001B0F0BD2DE9F04381B000283A
:1034200000F02A8142F200080446C5F200288946CD
:10343000D8F8000000F00F0088420ED2D8F8000043
:1034400020F00F0040EA0900C8F80000D8F800009A
:1034500000F00F00484540F00F81206844F2184703
:103460004107C5F602070AD521693A6802F07002E1
:10347000914204D93A6822F0700211433960010781
:103480000AD561697A6802F07002914204D97A68BB
:1034900022F0700211437960C1060AD5A1697A68E9
:1034A00002F4E062914204D97A6822F4E0621143A6
:1034B000796081060AD5E169BA6802F0700291422A
:1034C00004D9BA6822F070021143B96010F0020109
:1034D0000AD0E2683B6803F00F039A4204D93B68C4
:1034E00023F00F031A433A60C20746D0386820F42D
:1034F0007061D4E90102012841EA0201396009D072
:1035000003280DD0022811D157F8181C890340F167
:10351000B38010E057F8181CC90540F1AD800AE0EF
:1035200057F8181C890140F1A78004E057F8181CCF
:10353000490740F1A18057F8081C21F00701084312
:1035400047F8080C06F008FC064641F2883500BF33
:1035500057F8080C616800F03800B0EBC10F09D0D3
:1035600006F0FAFB801BA842F2D9032001B0BDE8A7
:10357000F08300BF206800F0020151B1E1683A68B1
:1035800002F00F02914204D23A6822F00F02114376
:103590003960D8F8001001F00F0149450DD9D8F86D
:1035A000001021F00F0141EA0901C8F80010D8F815
:1035B000001001F00F0149455ED141070AD521698C
:1035C0003A6802F07002914204D23A6822F0700226
:1035D0001143396001070AD561697A6802F0700207
:1035E000914204D27A6822F0700211437960C106D8
:1035F0000AD5A1697A6802F4E062914204D27A683D
:1036000022F4E0621143796080060AD5E069B96866
:1036100001F07001884204D2B96821F070010843BA
:10362000B86000F02DF8396847F2B0433A68C0F648
:103630000103C1F3032102F00F02595C9A5C01F00F
:103640001F0120FA01F102F01F0040F20C0221FAE2
:1036500000F0C2F20042106040F2040040F20802A2
:10366000C2F20040C2F200420068116001B0BDE841
:10367000F04306F0F5BA00BF012001B0BDE8F083C9
:1036800044F20041C5F602010869C0F3C2000328F4
:1036900010D002282ED098BB0868800649F200009E
:1036A000C0F2D03058BF70470968C1F3C101C840AB
:1036B000704700BF8A6A886AC0F3051CC86ABCF1FB
:1036C000000F4B6B22D000F0010002F003024042D9
:1036D000022A00EAD3006FF35F3000EE100AB8EE62
:1036E000400A15D0C2B90868800619D49FED281A7F
:1036F00023E000BF47F64000C0F27D10704700BFD6
:1037000040F60010C0F23D00704700BF0020704737
:103710009FED1E1A11E000BF9FED1B1A0DE000BFC8
:10372000086849F20002C0F2D032C0F3C10022FAA8
:1037300000F001EE100AB8EE411A086B9FED153A41
:103740006FF35F2002EE100A086BC0F34620B8EE5C
:10375000422A013000EE032A00EE10CAB7EE003A0A
:10376000B8EE400A81EE000A32EE031A20EE010A9A
:1037700001EE100AB8EE411A80EE010ABCEEC00A52
:1037800010EE100A704700BF0024744A20BCBE4BE4
:103790000024744C0000003970B586B0002844F253
:1037A000E04640F2000014460D46C5F60206C5F696
:1037B000020023D0316800F5006041F0040131605F
:1037C000316801F00401019101994FF400710191F8
:1037D000022102910321049100210391059101A985
:1037E00001F032FF56F8D00C20F07E4040EAC410C1
:1037F000284346F8D00C06B070BD00BF316841F0D8
:1038000001013160316801F00101019101994FF42A
:103810008071019102210291032104910021039101
:10382000059101A901F010FF56F8D00C20F0FE70B0
:103830002843204346F8D00C06B070BD00BF00BF3F
:1038400044F20040C5F60200016841F40021016025
:10385000704700BF00BF00BF44F20040C5F6020041
:10386000016821F400210160704700BF00BF00BF64
:1038700080B5FFF705FF44F2184147F2B043C5F6A3
:103880000201C0F601030A68096801F00F01C2F3E2
:103890000322595C9A5C02F01F0220FA02F201F046
:1038A0001F0040F20C0122FA00F0C2F20041086051
:1038B00040F20801C2F200410A6080BD00BF00BFB3
:1038C00080B5FFF7DDFE44F2184C47F2B041C5F673
:1038D000020CC0F60101DCF80020DCF8003003F037
:1038E0000F03C2F30322CB5C8A5C02F01F02D040BC
:1038F00003F01F0240F20C0320FA02F2C2F200436E
:103900001A6040F20803C2F200431860DCF80400B9
:10391000C0F30210085C00F01F0022FA00F080BD26
:1039200080B5FFF7ADFE44F2184C47F2B041C5F642
:10393000020CC0F60101DCF80020DCF8003003F0D6
:103940000F03C2F30322CB5C8A5C02F01F02D0405B
:1039500003F01F0240F20C0320FA02F2C2F200430D
:103960001A6040F20803C2F200431860DCF8040059
:10397000C0F30220085C00F01F0022FA00F080BDB6
:10398000F0B581B0044644F20045C5F602053F207B
:1039900020602868400305D42868C00306D40020AE
:1039A00006E000BF4FF4A02002E000BF4FF48030DB
:1039B0006060286800F08000E06106F02DFA41F2B6
:1039C00004060C21B0424FF0180038BF042138BF64
:1039D0001A204FF03F024FF0180738BF1F226958D6
:1039E00021FA00F010402062286800F00100E06039
:1039F00006F012FAB0424FF07F0038BF0C2738BFF4
:103A00003F206968F94008402061286F400705D4CD
:103A1000286FC00706D10020A06005E00520A06047
:103A200002E000BF0120A060686F00F0010060614B
:103A30002868C0F30030A0612868C0014FF0020080
:103A400058BF01206062A86A00F00300A062A86A63
:103A5000C0F30510E062286B6FF35F200130206334
:103A6000286BC0F306600130E063286BC0F346208A
:103A700001306063286BC0F306400130A063E86A40
:103A800000F00C002064E86AC0F340006064686BDA
:103A9000C0F3CC00A06401B0F0BD00BF00BF00BF08
:103AA0003F22026044F21842C5F6020252F8083C76
:103AB00003F007034360136803F4706383601368C3
:103AC00003F00F03C360136803F0700303615368CE
:103AD00003F070034361536803F4E0638361926809
:103AE00002F07002C26142F20000C5F200200068DC
:103AF00000F00F000860704710B544F26444C5F64A
:103B000002042068400558BF10BD00F005F84FF4CE
:103B10008060606010BD00BF7047000000000000C2
:103B20002DE9F0470446C07844F22C480007C5F65A
:103B3000020833D5A06E4FEA305103290CD8DFE8D4
:103B400001F003111D2600BFD8F8001041F4003128
:103B5000C8F800101BE000BF01266078C0070BD03A
:103B600020E000BF04F10800022100F079FD0646C4
:103B700060B16078C00715D1354646E004F12800F1
:103B8000022100F001FE06460028F2D1A06ED8F80E
:103B9000241021F440110843C8F82400002660785E
:103BA000C007E9D0A06D04280ED83546DFE800F044
:103BB0000412181E1E0000BFD8F80000354640F45D
:103BC0000030C8F8000011E0012501276078800767
:103BD0001FD452E004F10800002100F041FD04E090
:103BE00004F12800002100F0CFFD05462F461DB14D
:103BF000607880070DD440E0D8F82400A16D20F053
:103C0000070000250843C8F824003746607880077D
:103C100033D5E06D4FEAB01004280DD8DFE800F08E
:103C20000412181E1E0000BFD8F8000040F4003037
:103C3000C8F8000012E000BF0125012660784007A7
:103C40001FD455E004F10800002100F009FD04E054
:103C500004F12800002100F097FD05462E461DB115
:103C6000607840070DD443E0D8F82400E16D20F4DB
:103C7000E07000250843C8F824003E4660784007FD
:103C800036D5D4F8A8004FEA705004280CD8DFE8E5
:103C900000F00313191F1F00D8F8000040F4003093
:103CA000C8F8000014E000BF01254FF0010960785A
:103CB000000721D456E000BF04F10800002100F005
:103CC000CFFC04E004F12800002100F05DFD054672
:103CD000A9461DB1607800070ED443E0D8F82C0047
:103CE000D4F8A81020F4600000250843C8F82C0080
:103CF000B1466078000735D5D4F8AC004FEA3060A3
:103D000004280DD8DFE800F00412181E1E0000BFC2
:103D1000D8F8000040F40030C8F8000012E000BFFE
:103D200001250127E078800720D44EE004F1080047
:103D3000002100F095FC04E004F12800002100F0CF
:103D400023FD05462F461DB1E07880070ED43CE0E8
:103D5000D8F82C00D4F8AC1020F0E060002508431F
:103D6000C8F82C004F46E07880072ED5E06C4FEA6B
:103D7000301003280ED8DFE800F00903130900BF54
:103D8000D8F8000040F40030C8F800002E467DB995
:103D900012E000BF012501266078C00619D44CE06E
:103DA00004F10800022100F05BFC05462E461DB11F
:103DB0006078C0060DD440E0D8F82000E16C20F017
:103DC000300000250843C8F820003E466078C00651
:103DD00033D5206E4FEA303004280DD8DFE800F0EC
:103DE0000412181E1E0000BFD8F8000040F4003076
:103DF000C8F8000012E000BF0125012760788006A6
:103E00001FD44EE004F10800002100F029FC04E07A
:103E100004F12800002100F0B7FC05462F461DB133
:103E2000607880060DD43CE0D8F82400216E20F4A0
:103E3000E04000250843C8F8240037466078800633
:103E40002FD5606E4FEA3040052809D8DFE800F032
:103E5000040E1404040400BF2E46ADB918E000BFE0
:103E600001250126607840061FD44FE004F10800C8
:103E7000012100F0F5FB04E004F12800012100F02D
:103E800083FC05462E461DB1607840060DD43DE00A
:103E9000D8F82400616E20F4E02000250843C8F81B
:103EA00024003E466078400630D5D4F8B0004FEA92
:103EB0003070052808D8DFE800F0030D1303030372
:103EC0002F46ADB918E000BF012501276078000634
:103ED00020D442E004F10800012100F0C1FB04E01D
:103EE00004F12800012100F04FFC05462F461DB1CA
:103EF000607800060ED430E0D8F82C00D4F8B0106A
:103F000020F0E04000250843C8F82C0037466078D0
:103F1000000622D5206F58B1B0F1005F0CD0B0F18F
:103F2000805F2FD1D8F8000040F40030C8F80000BE
:103F30002E469DB908E000BF04F10800012100F001
:103F40008FFB05462E464DB9D8F82400216F20F08E
:103F5000405000250843C8F824003E46E078C007DA
:103F600033D0A06C032813D8DFE800F008021A0849
:103F7000D8F8000040F40030C8F80000A946BDB9E8
:103F80001AE000BF01250126E078C007E9D11CE056
:103F900001254FF00109A07840061AD51CE000BFAA
:103FA00004F10800022100F05BFB0546A9461DB1A3
:103FB000A07840060DD50FE0D8F82000A16C20F0C5
:103FC000030000250843C8F82000B146A078400649
:103FD00002D44F4618E000BFD8F8D40340F48070F4
:103FE000C8F8D40305F0B8FE064600BFD8F8D403DD
:103FF000C00507D405F0B0FE801B6428F6D9032560
:10400000032701E02F468DB12078C00761D0E06F13
:104010004FEAF00005283BD8DFE800F004404604F2
:10402000040400BF002D2E4646D149E0D8F84410C4
:10403000D4F8B400414011F4407F11D0D8F84410B6
:10404000D8F8442042F48032C8F84420D8F84420FC
:1040500021F4407122F48032C8F84420C8F844109A
:10406000B0F5807F40F0DE8205F076FE064641F234
:10407000883A0325032700BFD8F84400800700F1E1
:10408000CF8205F069FE801B5045F5D9BCE700BF23
:1040900001260125207880071FD44CE004F1080098
:1040A000012100F0DDFA04E004F12800012100F014
:1040B0006BFB05462E461DB1207880070DD43AE0F3
:1040C000D8F82800E16F20F0380000250843C8F830
:1040D00028003E46207880072DD5A06F052809D8F6
:1040E000DFE800F0040E1404040400BF2F46ADB94D
:1040F00018E000BF01270125207840071FD44DE0BC
:1041000004F10800012100F0ABFA04E004F12800FA
:10411000012100F039FB05462F461DB120784007EC
:104120000DD43BE0D8F82800A16F20F0070000254F
:104130000843C8F828003746207840072ED5D4F821
:104140009400052808D8DFE800F0030D13030303EB
:104150002E46ADB918E000BF012601252078800663
:1041600020D451E004F10800012100F079FA04E0C4
:1041700004F12800012100F007FB05462E461DB181
:10418000207880060ED43FE0D8F82C00D4F89410A4
:1041900020F0070000250843C8F82C003E46207890
:1041A000800631D5D4F890004FEA3070052809D840
:1041B000DFE800F0040E1404040400BF2F46ADB97C
:1041C00018E000BF012701252078400620D451E0E7
:1041D00004F10800002100F043FA04E004F1280093
:1041E000022100F0D1FA05462F461DB12078400685
:1041F0000ED43FE0D8F82800D4F8901020F0E0402A
:1042000000250843C8F8280037462078400631D5F5
:10421000D4F89C004FEAB020052809D8DFE800F068
:10422000040E1404040400BF2E46ADB918E000BF0C
:10423000012601252078000620D454E004F108006E
:10424000002100F00DFA04E004F12800022100F042
:104250009BFA05462E461DB1207800060ED442E09A
:10426000D8F82C00D4F89C1020F4E0500025084326
:10427000C8F82C003E462078000634D5D4F8A000BB
:104280004FEA703005280FD8DFE800F004141A0454
:10429000040400BF2F46E5B12068010727D4C106FA
:1042A0003ED4000355D475E001270125206801079D
:1042B000F5D51CE004F10800002100F0D1F904E07C
:1042C00004F12800022100F05FFA0546002D2F4678
:1042D000E2D1D8F82C00D4F8A01020F460400025DA
:1042E0000843C8F82C00374620680107D7D5D4F812
:1042F0008400B0F5805F09D104F12800022100F0AC
:1043000043FA002818BF0127D4F88400D8F82810F1
:1043100021F440510843C8F828002068C106C0D5E0
:10432000D4F89800B0F5807F09D104F1280002216B
:1043300000F02AFA002818BF0127D4F89800D8F80E
:104340002C1021F440710843C8F82C0020680003A9
:1043500020D5D4F8A400B0F5003F0FD0B0F5803FD1
:1043600006D078BB04F10800002100F079F904E0E0
:1043700004F12800022100F007FA05462E4655B93F
:10438000D8F82C00D4F8A41020F4403000250843BD
:10439000C8F82C003E46A07840072BD5D4F88800FA
:1043A000B0F5401F0BD0B0F5001F11D0B0F5801F45
:1043B0002AD1D8F8000040F40030C8F800002F4699
:1043C000CDB90DE001260125A0784007E6D411E023
:1043D00004F12800012100F0D7F905462F4655B910
:1043E000D8F82800D4F8881020F44010002508439D
:1043F000C8F828003746A078C0070AD13E46216891
:10440000880016D533E000BF01270125A078C0073A
:10441000F4D0206DB0F5803F10D018BBD8F8000064
:1044200040F40030C8F800002E4685B121688800AD
:104430001DD460688A0326D469E000BF04F1080037
:10444000022100F00DF90546002D2E46EED1D8F8D8
:104450002000216D20F4803000250843C8F820009A
:10446000CCE700BF0126012521688800E1D504F1D1
:104470002800022100F088F9002818BF0126D4E99D
:1044800000108A0343D5D4F880206FF0010303EBBA
:104490003223022B0BD34FEA322343B1012B40F0DE
:1044A000B980D8F8003043F40033C8F800303DB389
:1044B000CA022FD4CA0037D48A0240D44A0048D452
:1044C000CA0F55D109025DD4C10766D181076FD4E7
:1044D000410779D4010700F18380C10600F18C8087
:1044E000800607D504F12800022100F04DF90028CC
:1044F00018BF0125002D18BF01252846BDE8F0870B
:10450000D8F8283023F440731A43C8F828203546D9
:10451000CA02CFD5D8F82420636F22F000421A4394
:10452000C8F82420CA00C7D558F81C2CD4F8B830D5
:1045300022F480421A4348F81C2C8A02BED5D8F8CF
:104540002420E36E22F080721A43C8F824204A0027
:10455000B6D558F81C2C22F4004248F81C2CD4F88C
:10456000BC2058F81C3C1A4348F81C2CCA0FA9D090
:10457000D8F82020636D22F040521A43C8F820205A
:104580000902A1D5D8F82810D4F88C2021F44001D4
:104590001143C8F82810C10798D004F10800002181
:1045A00000F05EF8002818BF0546606881078FD5C7
:1045B00004F10800012100F053F8002818BF054657
:1045C000606841077FF586AF04F10800022100F022
:1045D00047F8002818BF0546606801077FF57DAFE2
:1045E00004F12800002100F0CFF8002818BF05468C
:1045F0006068C1067FF574AF04F12800012100F066
:10460000C3F8002818BF0546606880067FF572AFC2
:1046100068E700BF0125CA027FF54CAF7AE700BF0B
:10462000D4F8B4004FF6CF7358F81C2CC0F2FF0337
:1046300000F4407122F47C5203EA10136FF31F3030
:10464000B1F5407F08BF1A43002548F81C2CD8F864
:1046500044100843C8F84400FFF7BBBC00BF00BFCC
:10466000F0B581B044F22C47C5F6020757F8042C88
:1046700002F00302032A03D1012001B0F0BD00BF04
:10468000054657F82C0C0C4620F0806047F82C0C9F
:1046900005F062FB064600BF57F82C0C000105D55B
:1046A00005F05AFB801B0228F6D964E057F8040C89
:1046B000EE6895E80E0020F47C30012C40EA0130D1
:1046C000A2F101016FF35F214FF47E4202EB43221E
:1046D00047F8040C92B24FF0FE4302EB01004FF496
:1046E000FE012A6901EB064101F4FE0103EB0262BF
:1046F000084402F0FE410844F8603868696920F017
:10470000C00040EA010038603868A96920F0200044
:1047100040EA0100386038684FF6F87120F0100068
:1047200038603869EA6920EA01004FF4001140EA74
:10473000C2003861386808BF4FF4801140F01000A3
:10474000002C386008BF4FF40021386808433860F7
:1047500057F82C0C40F0806047F82C0C05F0FCFA60
:10476000044600BF57F82C0C000107D405F0F4FAFA
:10477000001B0328F6D3032001B0F0BD002001B0D8
:10478000F0BD00BF00BF00BFF0B581B044F22C47C0
:10479000C5F6020757F8042C02F00302032A03D1DE
:1047A000012001B0F0BD00BF054657F82C0C0C46A7
:1047B00020F0805047F82C0C05F0CEFA064600BFDA
:1047C00057F82C0C800005D505F0C6FA801B02288E
:1047D000F6D964E057F8040CEE6895E80E0020F076
:1047E0007C70012C40EA0150A2F101016FF35F21BE
:1047F0004FF47E4202EB432247F8040C92B24FF092
:10480000FE4302EB01004FF4FE012A6901EB064171
:1048100001F4FE0103EB0262084402F0FE41084489
:1048200078613868696920F4406040EA01003860C6
:104830003868A96920F4007040EA010038603868DF
:104840004FF6F87120F480703860B869EA6920EAA0
:1048500001004FF0807140EAC200B861386808BFBB
:104860004FF4000140F48070002C386008BF4FF412
:10487000800138680843386057F82C0C40F08050AD
:1048800047F82C0C05F068FA044600BF57F82C0CCA
:10489000800007D405F060FA001B0328F6D303203C
:1048A00001B0F0BD002001B0F0BD00BF00BF00BFEF
:1048B000002141606FF08061016044F25041C5F613
:1048C000020151F8282CC2F30552826251F8102CD3
:1048D0006FF35F220132C26251F8102CC2F30662FC
:1048E0000132826351F8102CC2F346220132026376
:1048F00051F8102CC2F306420132426351F8242CC5
:10490000C2F38122C26351F8242CC2F34022026414
:1049100051F8282CC2F30532826051F8182C6FF33D
:104920005F220132C26051F8182CC2F306620132D4
:10493000826151F8182CC2F346220132026151F80B
:10494000182CC2F306420132426151F8242CC2F302
:104950008112C26151F8242CC2F3401202624A68EB
:1049600002F03802C2674A6802F0070282678A686A
:1049700002F00702C0F894204A6802F44052C0F8DE
:1049800084204A6802F0E042C0F890208A6802F46D
:10499000E052C0F89C208A6802F46042C0F8A0206F
:1049A0000A6802F0070282650A6802F4E072C265D2
:1049B0008A6802F46002C0F8A8208A6802F0E06207
:1049C000C0F8AC200A6A02F44072C0F8B4204A6809
:1049D00002F44012C0F8882051F8042C02F480320E
:1049E00002654A6802F44072C0F8802051F8402CF9
:1049F00002F48042C0F8B8208A6802F44032C0F85D
:104A0000A4200A6802F0004242670A6802F080723D
:104A1000C2660A6802F4401282660A6802F4E04242
:104A200002660A6802F4E02242668A6802F0E04206
:104A3000C0F8B0200A6802F0405202674A6802F4E7
:104A40004002C0F88C2051F8042C02F0030282646A
:104A500051F8042C02F03002C26451F8042C02F028
:104A60004052426551F8401C01F40041C0F8BC10AE
:104A7000704700BF00BF00BF10B584B0024641F6CA
:104A8000FF7300209B1A70EB01033BDB40F2FF3306
:104A90009B1A70EB010361DA82F480630B4300F030
:104AA000F78082F400630B4300F0188182F4805297
:104AB000114340F0868144F20041C5F60201086DC1
:104AC000C0F30232042A00F2548148F20000C0F21E
:104AD000BB00DFE812F01501370141017601050046
:104AE000C86C0A68520700F04052086802D5002AD4
:104AF00000F0B981C00540F17581B2F1805F00F02E
:104B0000CC816FE147F6FF739B1A70EB010355DA16
:104B100082F400430B4300F0F58082F480330B43B2
:104B200000F0008182F40022114340F04A8144F2F7
:104B30000040C5F60200816D01F44031B1F5003F3F
:104B400000F02081B1F5803F00F02A81002940F07B
:104B500010810068000140F10C81F6E082F480735E
:104B60000B4357D082F40072114340F02A8144F283
:104B70000041C5F60201086DC0F38212042A00F25A
:104B8000F88048F20000C0F2BB00DFE812F0B90084
:104B9000DB00E5001A010500C86C0A68520700F046
:104BA0004052086802D5002A00F05D81C00540F13E
:104BB0001981B2F1805F00F0708113E182F400533B
:104BC0000B434DD082F48042114340F0FA8044F20E
:104BD0000044C5F60204A06DC0F30270052800F27F
:104BE000C880DFE810F007001101130115011B0157
:104BF0001D0100BFFEF73CFE216A47F2B042C0F63D
:104C00000102C1F30211515C01F01F01C84004B060
:104C100010BD00BF44F20041C5F60201086D00F06E
:104C20000702042A00F2A58048F20000C0F2BB008F
:104C3000DFE802F0668892C7040000BFC86C0A680B
:104C4000520700F04052086802D5002A00F00B819C
:104C5000C00540F1C780B2F1805F00F01E81C1E065
:104C600044F20040C5F60200016DC1F3024105297E
:104C700000F27F80DFE811F00600DE00E800F200BD
:104C80000201540004B0BDE81040FEF719BE00BF99
:104C900044F20041C5F60201886DC0F34252042A75
:104CA00000F2678048F20000C0F2BB00DFE802F0CB
:104CB000284A5489040000BFC86C0A68520700F0F3
:104CC0004052086802D5002A00F0CD80C00540F1AE
:104CD0008980B2F1805F00F0E08083E044F200411F
:104CE000C5F60201886DC0F30262042A41D848F279
:104CF0000000C0F2BB00DFE802F003252F6467006C
:104D0000086834E044F20040C5F60200016D01F08D
:104D10004051B1F1005F4DD0B1F1805F26D041BB71
:104D200000687EE044F20040C5F60200C16C0068F5
:104D3000C9031CD500011CD501A800F065F9039832
:104D400004B010BD0868000113D501A800F05CF99B
:104D5000019804B010BD00BF0868800009D501A803
:104D600000F0EAF9019804B010BD00BF00688001AE
:104D700002D4002004B010BD01A800F0A9F80298E8
:104D800004B010BDC16C0268520701F040510268C6
:104D900040F17E80002940F07B80C2F3C10064E0D6
:104DA00000688000E5D501A800F0C6F9039804B0BA
:104DB00010BD00BF00680001DBD501A800F024F998
:104DC000029804B010BD00BFC86C0A68520700F01A
:104DD0004052086801D5002A45D0C00502D5B2F17D
:104DE000805F5AD00868B2F1005F00F400314FF0E4
:104DF000000004BF47F64000C0F27D10002908BF44
:104E0000084604B010BD00BF206814E020681CE014
:104E100020684007ADD5206825E000BF20682EE05F
:104E2000206847F640018003C0F27D1101EAE0707E
:104E300004B010BD006800019BD501A800F0E4F8A3
:104E4000029804B010BD00BF006880007FF591AFEC
:104E500001A800F071F9029804B010BD016849077B
:104E60007FF587AF0068C0F3C10049F20001C0F2CE
:104E7000D03121FA00F004B010BD00BF006840F648
:104E80000011C005C0F23D0101EAE07004B010BDA0
:104E9000D20509D5B1F1805F06D140F60010C0F20D
:104EA0003D0004B010BD00BF0068B1F1005F00F428
:104EB00000324FF0000004BF47F64000C0F27D1002
:104EC000002A08BF104604B010BD00BF00BF00BFDD
:104ED00080B544F2304EC5F6020E5EF8083C5EF82E
:104EE000081CC1F3051C5EF8041CBCF1000FDEF8C1
:104EF000042019D001F0010103F003034942022B01
:104F000001EAD2016FF35F3100EE101AB8EE400AE9
:104F100010D0012B12D01BB95EF8301C890611D4B9
:104F20009FED361A1CE000BF00218160C0E900112E
:104F300080BD00BF9FED301A12E000BF9FED2D1A1B
:104F40000EE000BF5EF8301C49F20002C0F2D03221
:104F5000C1F3C10122FA01F101EE101AB8EE411AB3
:104F6000DEF800109FED263A6FF35F2102EE101A73
:104F7000DEF80010C1F34621B8EE422A00EE032A03
:104F800000EE10CAB7EE003AB8EE400A81EE000A11
:104F900032EE031A02EE101AB8EE422A20EE010A8F
:104FA00032EE031A80EE011ABCEEC11A80ED001A2F
:104FB000DEF80010C1F3064101EE101AB8EE411AF6
:104FC00031EE031A80EE011ABCEEC11A80ED011A0F
:104FD000DEF80010C1F3066101EE101AB8EE411AB6
:104FE00031EE031A80EE010ABCEEC00A10EE101A70
:104FF000816080BD0024744A20BCBE4B0024744CE8
:105000000000003900BF00BF80B544F2384EC5F63D
:10501000020E5EF8103C5EF8101C5EF80C2CC1F31A
:10502000053CDEF80410BCF1000F15D0C908D2060B
:1050300001EAE2716FF35F3100EE101A03F0030131
:105040000229B8EE400A0DD081B95EF8381C8906F5
:1050500010D49FED361A1BE000218160C0E90011D9
:1050600080BD00BF9FED301A12E000BF9FED2D1AEA
:105070000EE000BF5EF8381C49F20002C0F2D032E8
:10508000C1F3C10122FA01F101EE101AB8EE411A82
:10509000DEF800109FED263A6FF35F2102EE101A42
:1050A000DEF80010C1F34621B8EE422A00EE032AD2
:1050B00000EE10CAB7EE003AB8EE400A81EE000AE0
:1050C00032EE031A02EE101AB8EE422A20EE010A5E
:1050D00032EE031A80EE011ABCEEC11A80ED001AFE
:1050E000DEF80010C1F3064101EE101AB8EE411AC5
:1050F00031EE031A80EE011ABCEEC11A80ED011ADE
:10510000DEF80010C1F3066101EE101AB8EE411A84
:1051100031EE031A80EE010ABCEEC00A10EE101A3E
:10512000816080BD0024744A20BCBE4B0024744CB6
:105130000000003900BF00BF80B544F2404EC5F604
:10514000020E5EF8183C5EF8181C5EF8142CC1F3D1
:10515000055CDEF80410BCF1000F15D0C908D205BB
:1051600001EAE2716FF35F3100EE101A03F0030100
:105170000229B8EE400A0DD081B95EF8401C8906BC
:1051800010D49FED361A1BE000218160C0E90011A8
:1051900080BD00BF9FED301A12E000BF9FED2D1AB9
:1051A0000EE000BF5EF8401C49F20002C0F2D032AF
:1051B000C1F3C10122FA01F101EE101AB8EE411A51
:1051C000DEF800109FED263A6FF35F2102EE101A11
:1051D000DEF80010C1F34621B8EE422A00EE032AA1
:1051E00000EE10CAB7EE003AB8EE400A81EE000AAF
:1051F00032EE031A02EE101AB8EE422A20EE010A2D
:1052000032EE031A80EE011ABCEEC11A80ED001ACC
:10521000DEF80010C1F3064101EE101AB8EE411A93
:1052200031EE031A80EE011ABCEEC11A80ED011AAC
:10523000DEF80010C1F3066101EE101AB8EE411A53
:1052400031EE031A80EE010ABCEEC00A10EE101A0D
:10525000816080BD0024744A20BCBE4B0024744C85
:105260000000003900BF00BF80B5FEF701FB44F22B
:10527000204147F2B042C5F60201C0F601020968BA
:10528000C1F30211515C01F01F01C84080BD00BF95
:1052900080B5FEF7EDFA44F2184147F2B042C5F688
:1052A0000201C0F601020968C1F30211515C01F06C
:1052B0001F01C84080BD00BF80B5FEF7E1F944F290
:1052C000184147F2B043C5F60201C0F601030A686F
:1052D000096801F00F01C2F30322595C9A5C01F0E6
:1052E0001F0102F01F02D04040F20C02C2F2004245
:1052F00020FA01F1116040F20801C2F20041086099
:1053000080BD00BF00BF00BF44F27040C5F6020080
:10531000016841F020010160704700BF00BF00BF7D
:1053200044F26040C5F60200016921F020010161EC
:10533000016821F400710160704700BF00BF00BF29
:1053400044F260404FF0B042C5F60200016941F0FE
:1053500020010161016841F4007101608020C5F6FF
:105360000000016841F480210160106840F4802051
:105370001060704700BF00BF44F21041C5F6020143
:105380000A6822F0400210430860704700BF00BF67
:1053900044F21041C5F602010A6822F0800210436F
:1053A0000860704700BF00BF44F2A041C5F602018B
:1053B0000A6810430860704710B544F294410446EF
:1053C000C5F602010A6842F002020A60086820F08D
:1053D0000200086004F020FD41F203018842D4E994
:1053E000000105D8B1F1405F02D1A16802E000BF21
:1053F0000143A06804F10C0308430ECB084348F2B4
:105400000041C4F2000140EA02404860086820F40C
:105410007C5040EA03200860086840F060000860A3
:1054200010BD00BF00BF00BF48F20040C4F2000042
:10543000016841F080010160704700BF00BF00BFFC
:1054400048F20841C4F2000151F8042C92B2026003
:1054500051F8082CC2F3052242600A68120C8260DF
:10546000096801F40041C160704700BF00BF00BF80
:105470002DE9F04F81B048F208460446C4F2000618
:1054800004F06AFC611C4DD005464FF00808B4FAE0
:1054900084F04FF0040947094FF0020A4FF0010B66
:1054A00007E000BF3168090748BFC6F8048000283C
:1054B0006ED104F051FC401BA0424FF0000088BFA9
:1054C00001203168C90740EA07000DD1316889071A
:1054D00010D43168490513D43168C90516D4316830
:1054E0008905DFD519E000BF0230C6F804B0316885
:1054F0008907EED50430C6F804A031684905EBD51C
:105500002030C6F804903168C905E8D540F008009D
:10551000C6F8049031688905C4D540F01000C6F87B
:105520000490BFE7082104220223012705E000BF01
:1055300035682D0748BF716050BB3068C00705D182
:1055400000203568AD0706D407E000BF0220776071
:105550003568AD0701D50430736035686D0507D433
:105560003568ED0509D43568AD05E1D50BE000BF20
:10557000203072603568ED05F5D540F008007260A6
:105580003568AD05D4D540F010007260D0E700BF9B
:1055900001B0BDE8F08F00BF48F20C41C4F2000139
:1055A00051F8040CC20751F80C2C18BF12F001037B
:1055B00008D183070AD512F0020307D00220086041
:1055C00000F022B80120086000F01AB8030707D5E0
:1055D00012F0080304D00820086000F019B800BFDA
:1055E00043070BD512F0040208BF7047382202EAC5
:1055F000501004220A6000F00FB800BF704700BFCF
:10560000704700BF00BF00BF704700BF00BF00BFB2
:10561000704700BF00BF00BF704700BF00BF00BFA2
:1056200044F26440C5F602000168890558BF70471E
:105630004FF40071416000F003B800BF00BF00BF2D
:1056400070470000000000002DE9F04F82B00D68A7
:10565000002D00F0CB8000F1264242F2004302F11F
:10566000FF72C5F602030A2698424FEAB22444F2BA
:10567000F44E08BF0926092C40F2040C38BF4FEA4B
:10568000B226C5F6020EC5F6000C009600220027D1
:10569000002609E001360D6835FA06F307F1040724
:1056A00002F1020200F0A280012303FA06F415EAD7
:1056B0000408EFD0D1F804A003230AF0030B9340B1
:1056C000ABF101056FEA0309012D0FD88368CD689E
:1056D00003EA090395402B438360CAF3001543682E
:1056E000A34305FA06F42343436005E0BBF1030F2F
:1056F00002D14FF0030B21E0C3688C6803EA090371
:105700009440BBF1020F43EA0403C36016D16FF06B
:10571000030307F01C0503EA56030F24034404FAAD
:1057200005FBD3F820A00C692AEA0B0AAC4044EA36
:105730000A041C62D1F804A00AF0030B03680BFAF8
:1057400002F403EA09031AF4403F43EA0403036046
:10575000A0D0DEF8003040F2084A43F00203CEF851
:105760000030DEF80030C5F6000A03F002030193B2
:1057700026F00303019C07F00C040F2553F80A9050
:10578000A54029EA0509009D05FA04F444EA090444
:1057900043F80A404FF0B04ADAF800904C6849EA02
:1057A0000805E30258BF29EA0805A302CAF8005019
:1057B000DCF8009049EA080558BF29EA0805A30368
:1057C000CCF80050DCF8809049EA080558BF29EA77
:1057D0000805E403CCF88050DCF87C3043EA080587
:1057E00058BF23EA0805CCF87C5053E702B0BDE867
:1057F000F08F00BF00BF00BF2DE9F04F81B000293E
:105800007CD000F1264242F2004302F1FF72C5F65D
:1058100002030A2698424FEAB22740F2040B08BF5F
:105820000926092FC5F6000B38BF4FEAB226002221
:105830000027009600264FF00F0C23E06FF00304C2
:10584000032304EA56040568934004441D4305609D
:1058500007F01C050CFA05FE256A25EA0E052562EF
:10586000C5689D43C560456825EA0A0545608568A9
:1058700025EA030383600136043731FA06F302F1A7
:1058800002023BD0012303FA06FA1AEA0108F2D019
:1058900040F2084326F00305C5F6000307F00C0E9E
:1058A0000CFA0EF9ED58009B05EA090503FA0EF310
:1058B0009D42C3D1DBF87C304FF0B04423EA0803AB
:1058C000CBF87C30DBF8803023EA0803CBF880305B
:1058D000DBF8003023EA0803CBF800302568B30872
:1058E00025EA0805256040F20844C5F6000454F88E
:1058F000235025EA090544F823509FE701B0BDE88D
:10590000F08F00BF00BF00BF0069084018BF012032
:10591000704700BF00BF00BF002A08BF09048161B3
:10592000704700BF00BF00BF426902EA0103914314
:1059300041EA03418161704781B04FF480320092A7
:10594000009A0A430092009AC261C1610099C16144
:10595000C1690091C069012121EA104001B070477E
:105960008821C5F600010A68024208BF7047086036
:1059700000F002B800BF00BF704700000000000048
:105980002DE9F041044604F0E7F9FCB140F26F481C
:1059900005462068C4F2020840451BDC9F21C4F282
:1059A0000201884232DC5721C4F20201884259DCEC
:1059B0001021C4F20201884200F083802821C4F241
:1059C0000201884200F07D80402175E00120BDE8A1
:1059D000F08100BF45F22F41C5F60201884229DC63
:1059E00040F2B741C4F20201884247DC40F2704104
:1059F000C4F20201884264D040F28841C4F202013C
:105A000088425ED040F2A04156E000BF40F22741FC
:105A1000C4F20201884241DCA021C4F202018842A2
:105A20004FD0B821C4F2020188424AD040F210415E
:105A300042E000BF45F26B41C5F60201884200F327
:105A4000C18045F23041C5F60201884200F0CD80A8
:105A500045F24441C5F60201884200F0C68045F295
:105A60005841BDE05821C4F20201884229D070217A
:105A7000C4F20201884224D088211DE040F2B841DE
:105A8000C4F2020188421CD045F20841C5F6020169
:105A9000884200F0AA8045F21C41A1E040F2284172
:105AA000C4F2020188420CD040F24041C4F202012B
:105AB000884206D040F25841C4F20201884240F0C8
:105AC0002981022184F83510002184F834100168FE
:105AD00021F00101016000BF20680168C9070DD0F5
